{
  "contractName": "DifficultyOracle",
  "abi": [
    {
      "constant": true,
      "inputs": [],
      "name": "difficulty",
      "outputs": [
        {
          "name": "",
          "type": "uint256"
        }
      ],
      "payable": false,
      "stateMutability": "view",
      "type": "function"
    },
    {
      "constant": true,
      "inputs": [],
      "name": "blockNumber",
      "outputs": [
        {
          "name": "",
          "type": "uint256"
        }
      ],
      "payable": false,
      "stateMutability": "view",
      "type": "function"
    },
    {
      "inputs": [
        {
          "name": "_blockNumber",
          "type": "uint256"
        }
      ],
      "payable": false,
      "stateMutability": "nonpayable",
      "type": "constructor"
    },
    {
      "anonymous": false,
      "inputs": [
        {
          "indexed": false,
          "name": "difficulty",
          "type": "uint256"
        }
      ],
      "name": "OutcomeAssignment",
      "type": "event"
    },
    {
      "constant": false,
      "inputs": [],
      "name": "setOutcome",
      "outputs": [],
      "payable": false,
      "stateMutability": "nonpayable",
      "type": "function"
    },
    {
      "constant": true,
      "inputs": [],
      "name": "isOutcomeSet",
      "outputs": [
        {
          "name": "",
          "type": "bool"
        }
      ],
      "payable": false,
      "stateMutability": "view",
      "type": "function"
    },
    {
      "constant": false,
      "inputs": [
        {
          "name": "consumer",
          "type": "address"
        }
      ],
      "name": "pushOutcome",
      "outputs": [],
      "payable": false,
      "stateMutability": "nonpayable",
      "type": "function"
    }
  ],
  "bytecode": "0x608060405234801561001057600080fd5b5060405160208061031483398101806040528101908080519060200190929190505050438111151561004157600080fd5b80600081905550506102bc806100586000396000f30060806040526004361061006d576000357c0100000000000000000000000000000000000000000000000000000000900463ffffffff1680630537665d1461007257806319cae4621461008957806335324455146100b457806357e871e7146100f7578063ccdf68f314610122575b600080fd5b34801561007e57600080fd5b50610087610151565b005b34801561009557600080fd5b5061009e6101b2565b6040518082815260200191505060405180910390f35b3480156100c057600080fd5b506100f5600480360381019080803573ffffffffffffffffffffffffffffffffffffffff1690602001909291905050506101b8565b005b34801561010357600080fd5b5061010c61027e565b6040518082815260200191505060405180910390f35b34801561012e57600080fd5b50610137610284565b604051808215151515815260200191505060405180910390f35b600054431015801561016557506000600154145b151561017057600080fd5b446001819055507f39972cb21edd888c2061a2b4b37874524bbc055cfeaa3054682ba5369f5029aa6001546040518082815260200191505060405180910390a1565b60015481565b60006101c2610284565b151561025c576040517f08c379a00000000000000000000000000000000000000000000000000000000081526004018080602001828103825260258152602001807f546865206f7574636f6d6520686173206e6f7420796574206265656e2072657381526020017f6f6c76656400000000000000000000000000000000000000000000000000000081525060400191505060405180910390fd5b8173ffffffffffffffffffffffffffffffffffffffff16319050601090505050565b60005481565b600080600154119050905600a165627a7a7230582093ca2101d0fd445aed07f7fb67a2b39bb519b34f0290aae4527ce752a2a8ff960029",
  "source": "pragma solidity ^0.4.4;\nimport \"../PushOracle.sol\";\nimport \"../Oracle.sol\";\nimport \"../../test/contracts/OracleConsumer.sol\";\n\n/// @title Difficulty oracle contract - Oracle to retrieve the difficulty of the blockchain at given block\n/// @author Anton Shtylman - <anton@gnosis.pm>\ncontract DifficultyOracle is Oracle, PushOracle {\n\n    event OutcomeAssignment(uint difficulty);\n\n    uint public blockNumber;\n    uint public difficulty;\n\n    /// @dev Contract constructor validates and sets target block number\n    /// @param _blockNumber Target block number\n    constructor(uint _blockNumber)\n        public\n    {\n        // Block has to be in the future\n        // How would this function know the block number before deployment?\n        require(_blockNumber > block.number);\n        blockNumber = _blockNumber;\n    }\n\n    /// @dev Sets difficulty result for the specified upon construction block\n    function setOutcome()\n        public\n    {\n        // Block number was reached and outcome was not set yet\n        require(block.number >= blockNumber && difficulty == 0);\n        difficulty = block.difficulty;\n        emit OutcomeAssignment(difficulty);\n    }\n\n    /// @dev Returns if difficulty is set\n    /// @return Is outcome set?\n    function isOutcomeSet()\n        public\n        constant\n        returns (bool)\n    {\n        // Difficulty is always bigger than 0\n        return difficulty > 0;\n    }\n\n    /// @dev Pushes the outcome to a spericiic OracleConsumer\n    /// @return Outcome\n    function pushOutcome(OracleConsumer consumer)\n        external\n    {\n        require(isOutcomeSet(), \"The outcome has not yet been resolved\");\n        // consumer.receiveResult(bytes32(0), abi.encode(difficulty));\n        uint balance = address(consumer).balance;\n        balance = 16;\n    }\n}\n",
  "sourcePath": "/Users/antonvs/Projects/gnosis/oracle-examples/contracts/PushOracles/DifficultyOracle.sol",
  "compiler": {
    "name": "solc",
    "version": "0.4.24+commit.e67f0147.Emscripten.clang"
  },
  "schemaVersion": "2.0.1",
  "updatedAt": "2018-07-30T02:12:13.864Z"
}