{
  "contractName": "ParityWalletPushOracle",
  "abi": [
    {
      "constant": true,
      "inputs": [
        {
          "name": "",
          "type": "address"
        }
      ],
      "name": "parityBalances",
      "outputs": [
        {
          "name": "",
          "type": "uint256"
        }
      ],
      "payable": false,
      "stateMutability": "view",
      "type": "function"
    },
    {
      "inputs": [],
      "payable": false,
      "stateMutability": "nonpayable",
      "type": "constructor"
    },
    {
      "anonymous": false,
      "inputs": [
        {
          "indexed": false,
          "name": "",
          "type": "bool"
        }
      ],
      "name": "ActivityFound",
      "type": "event"
    },
    {
      "constant": true,
      "inputs": [],
      "name": "isOutcomeSet",
      "outputs": [
        {
          "name": "",
          "type": "bool"
        }
      ],
      "payable": false,
      "stateMutability": "view",
      "type": "function"
    },
    {
      "constant": false,
      "inputs": [],
      "name": "getOutcome",
      "outputs": [],
      "payable": false,
      "stateMutability": "nonpayable",
      "type": "function"
    },
    {
      "constant": false,
      "inputs": [
        {
          "name": "consumer",
          "type": "address"
        }
      ],
      "name": "pushOutcome",
      "outputs": [],
      "payable": false,
      "stateMutability": "nonpayable",
      "type": "function"
    }
  ],
  "bytecode": "0x608060405260a060405190810160405280731c0e9b714da970e6466ba8e6980c55e7636835a673ffffffffffffffffffffffffffffffffffffffff1673ffffffffffffffffffffffffffffffffffffffff16815260200173227b7656129bc07eef947d3c019a7a8f36a24e7473ffffffffffffffffffffffffffffffffffffffff1673ffffffffffffffffffffffffffffffffffffffff16815260200173a8871d303c501c39deb2abe118691eeeea813e3073ffffffffffffffffffffffffffffffffffffffff1673ffffffffffffffffffffffffffffffffffffffff16815260200173c7cd9d874f93f2409f39a95987b3e3c73831392573ffffffffffffffffffffffffffffffffffffffff1673ffffffffffffffffffffffffffffffffffffffff168152602001733bfc20f0b9afcace800d73d2191166ff1654025873ffffffffffffffffffffffffffffffffffffffff1673ffffffffffffffffffffffffffffffffffffffff16815250600190600561017c929190610267565b5034801561018957600080fd5b5060008090505b6005811015610261576001816005811015156101a857fe5b0160009054906101000a900473ffffffffffffffffffffffffffffffffffffffff1673ffffffffffffffffffffffffffffffffffffffff1631600660006001846005811015156101f457fe5b0160009054906101000a900473ffffffffffffffffffffffffffffffffffffffff1673ffffffffffffffffffffffffffffffffffffffff1673ffffffffffffffffffffffffffffffffffffffff168152602001908152602001600020819055508080600101915050610190565b50610327565b82600581019282156102d3579160200282015b828111156102d25782518260006101000a81548173ffffffffffffffffffffffffffffffffffffffff021916908373ffffffffffffffffffffffffffffffffffffffff1602179055509160200191906001019061027a565b5b5090506102e091906102e4565b5090565b61032491905b8082111561032057600081816101000a81549073ffffffffffffffffffffffffffffffffffffffff0219169055506001016102ea565b5090565b90565b6103fd806103366000396000f300608060405260043610610062576000357c0100000000000000000000000000000000000000000000000000000000900463ffffffff168063039530451461006757806335324455146100be5780637e7e4b4714610101578063ccdf68f314610118575b600080fd5b34801561007357600080fd5b506100a8600480360381019080803573ffffffffffffffffffffffffffffffffffffffff169060200190929190505050610147565b6040518082815260200191505060405180910390f35b3480156100ca57600080fd5b506100ff600480360381019080803573ffffffffffffffffffffffffffffffffffffffff16906020019092919050505061015f565b005b34801561010d57600080fd5b50610116610293565b005b34801561012457600080fd5b5061012d6103c8565b604051808215151515815260200191505060405180910390f35b60066020528060005260406000206000915090505481565b8073ffffffffffffffffffffffffffffffffffffffff16635dd8085560006001026000809054906101000a900460ff1660405160200180821515151581526020019150506040516020818303038152906040526040518363ffffffff167c010000000000000000000000000000000000000000000000000000000002815260040180836000191660001916815260200180602001828103825283818151815260200191508051906020019080838360005b8381101561022b578082015181840152602081019050610210565b50505050905090810190601f1680156102585780820380516001836020036101000a031916815260200191505b509350505050600060405180830381600087803b15801561027857600080fd5b505af115801561028c573d6000803e3d6000fd5b5050505050565b60008090505b600581101561038957600660006001836005811015156102b557fe5b0160009054906101000a900473ffffffffffffffffffffffffffffffffffffffff1673ffffffffffffffffffffffffffffffffffffffff1673ffffffffffffffffffffffffffffffffffffffff1681526020019081526020016000205460018260058110151561032157fe5b0160009054906101000a900473ffffffffffffffffffffffffffffffffffffffff1673ffffffffffffffffffffffffffffffffffffffff163111151561037c5760016000806101000a81548160ff0219169083151502179055505b8080600101915050610299565b7f8c6adba30f98f1ef31d30b3b4c24f3680f08288a1385638f82b30b5fed09178b6001604051808215151515815260200191505060405180910390a150565b600060019050905600a165627a7a72305820b23130c8eefb74821ea0d2123d7513b3e76b4bef1c10b8f579fa24c9080940640029",
  "source": "pragma solidity ^0.4.4;\nimport \"../Oracle.sol\";\nimport \"../../test/contracts/OracleConsumer.sol\";\n\n\ncontract ParityWalletPushOracle is Oracle {\n\n    event ActivityFound(bool);\n    // upon construction, log a certain set of balances, upon check test if they have changed\n    bool activityFound;\n    address[5] parityAccounts = [0x1C0e9B714Da970E6466Ba8E6980C55E7636835a6, 0x227b7656129BC07EEf947D3C019a7A8f36A24E74, 0xA8871D303c501c39deb2abe118691eEeEa813e30, 0xc7CD9d874F93F2409F39A95987b3E3C738313925, 0x3BfC20f0B9aFcAcE800D73D2191166FF16540258];\n    mapping(address => uint) public parityBalances;\n\n    constructor() public {\n        for (uint i=0; i<parityAccounts.length; i++) {\n            parityBalances[parityAccounts[i]] = parityAccounts[i].balance; \n        }\n    }\n\n    function isOutcomeSet() public view returns (bool) {\n        return true; \n    }\n\n    function getOutcome() public {\n        for (uint i=0; i<parityAccounts.length; i++) {\n            if (parityAccounts[i].balance <= parityBalances[parityAccounts[i]]) {\n                activityFound = true;\n            } \n        } \n        emit ActivityFound(true);\n        // Should this function allow the user to automatically push the results to a consumer if the outcome is set?\n    }\n\n    function pushOutcome(OracleConsumer consumer) public {\n        consumer.receiveResult(bytes32(0), abi.encode(activityFound));\n    }    \n}",
  "sourcePath": "/Users/antonvs/Projects/gnosis/oracle-examples/contracts/PushOracles/ParityWalletPushOracle.sol",
  "compiler": {
    "name": "solc",
    "version": "0.4.24+commit.e67f0147.Emscripten.clang"
  },
  "schemaVersion": "2.0.1",
  "updatedAt": "2018-07-30T04:17:04.864Z"
}