{
  "contractName": "PonziFundsFeedPushOracle",
  "abi": [
    {
      "constant": true,
      "inputs": [],
      "name": "ponziContractAddress",
      "outputs": [
        {
          "name": "",
          "type": "address"
        }
      ],
      "payable": false,
      "stateMutability": "view",
      "type": "function"
    },
    {
      "constant": true,
      "inputs": [
        {
          "name": "",
          "type": "uint256"
        }
      ],
      "name": "datafeed",
      "outputs": [
        {
          "name": "timestamp",
          "type": "uint256"
        },
        {
          "name": "funds",
          "type": "uint256"
        }
      ],
      "payable": false,
      "stateMutability": "view",
      "type": "function"
    },
    {
      "inputs": [],
      "payable": false,
      "stateMutability": "nonpayable",
      "type": "constructor"
    },
    {
      "anonymous": false,
      "inputs": [
        {
          "indexed": true,
          "name": "timestamp",
          "type": "uint256"
        }
      ],
      "name": "DataLogged",
      "type": "event"
    },
    {
      "constant": false,
      "inputs": [],
      "name": "logData",
      "outputs": [],
      "payable": false,
      "stateMutability": "nonpayable",
      "type": "function"
    },
    {
      "constant": true,
      "inputs": [],
      "name": "isOutcomeSet",
      "outputs": [
        {
          "name": "",
          "type": "bool"
        }
      ],
      "payable": false,
      "stateMutability": "view",
      "type": "function"
    },
    {
      "constant": false,
      "inputs": [
        {
          "name": "id",
          "type": "uint256"
        },
        {
          "name": "result",
          "type": "uint256"
        },
        {
          "name": "consumer",
          "type": "address"
        }
      ],
      "name": "pushOutcome",
      "outputs": [],
      "payable": false,
      "stateMutability": "nonpayable",
      "type": "function"
    }
  ],
  "bytecode": "0x608060405273a62142888aba8370742be823c1782d17a0389da1600160006101000a81548173ffffffffffffffffffffffffffffffffffffffff021916908373ffffffffffffffffffffffffffffffffffffffff16021790555034801561006557600080fd5b50610437806100756000396000f30060806040526004361061006d576000357c0100000000000000000000000000000000000000000000000000000000900463ffffffff168063128d16b3146100725780633eabfe48146100c9578063968e4f7714610120578063bcc17dc714610168578063ccdf68f31461017f575b600080fd5b34801561007e57600080fd5b506100c76004803603810190808035906020019092919080359060200190929190803573ffffffffffffffffffffffffffffffffffffffff1690602001909291905050506101ae565b005b3480156100d557600080fd5b506100de6102d1565b604051808273ffffffffffffffffffffffffffffffffffffffff1673ffffffffffffffffffffffffffffffffffffffff16815260200191505060405180910390f35b34801561012c57600080fd5b5061014b600480360381019080803590602001909291905050506102f7565b604051808381526020018281526020019250505060405180910390f35b34801561017457600080fd5b5061017d61032a565b005b34801561018b57600080fd5b506101946103eb565b604051808215151515815260200191505060405180910390f35b8073ffffffffffffffffffffffffffffffffffffffff16635dd808558460010284604051602001808281526020019150506040516020818303038152906040526040518363ffffffff167c010000000000000000000000000000000000000000000000000000000002815260040180836000191660001916815260200180602001828103825283818151815260200191508051906020019080838360005b8381101561026757808201518184015260208101905061024c565b50505050905090810190601f1680156102945780820380516001836020036101000a031916815260200191505b509350505050600060405180830381600087803b1580156102b457600080fd5b505af11580156102c8573d6000803e3d6000fd5b50505050505050565b600160009054906101000a900473ffffffffffffffffffffffffffffffffffffffff1681565b60008181548110151561030657fe5b90600052602060002090600202016000915090508060000154908060010154905082565b60006040805190810160405280428152602001600160009054906101000a900473ffffffffffffffffffffffffffffffffffffffff1673ffffffffffffffffffffffffffffffffffffffff1631815250908060018154018082558091505090600182039060005260206000209060020201600090919290919091506000820151816000015560208201518160010155505050427fd1112a79ae9f57cc7610ef95d8725fe8e0572a53f10548ecbfcc211dee6b1c3160405160405180910390a2565b60008060008054905011156104035760019050610408565b600090505b905600a165627a7a723058202cf28dd23ad3b733e1c2775e6ca2066f6435d9cb50ac6e5afcce35cb1a0654790029",
  "source": "pragma solidity ^0.4.4;\nimport \"../Oracle.sol\";\nimport \"../../test/contracts/OracleConsumer.sol\";\n\ncontract PonziFundsFeedPushOracle is Oracle {\n    event DataLogged(uint indexed timestamp);\n\n    struct ponziDataFeedStruct {\n        uint timestamp;\n        uint funds;\n    }\n    ponziDataFeedStruct[] public datafeed;\n    address public ponziContractAddress = 0xA62142888ABa8370742bE823c1782D17A0389Da1;\n    \n    constructor() public {\n        // Should the feed Oracles implement the first call in the constructor, or do they need an isOutcomeSet() function at all?\n    }\n\n    function logData() public {\n        datafeed.push(ponziDataFeedStruct({\n            timestamp: now,\n            funds: ponziContractAddress.balance\n        }));\n\n        emit DataLogged(now);\n    }\n\n    function isOutcomeSet() public view returns (bool) {\n        if (datafeed.length > 0) {\n            return true;\n        }\n        return false;\n    }\n\n    function pushOutcome(uint id, uint result, OracleConsumer consumer) public {\n        consumer.receiveResult(bytes32(id), abi.encode(result));\n    }\n}",
  "sourcePath": "/Users/antonvs/Projects/gnosis/oracle-examples/contracts/PushOracles/PonziFundsFeedPushOracle.sol",
  "compiler": {
    "name": "solc",
    "version": "0.4.24+commit.e67f0147.Emscripten.clang"
  },
  "schemaVersion": "2.0.1",
  "updatedAt": "2018-07-30T04:17:04.876Z"
}